:0400000026EF00F0F7
:1000080008820E01C9A50BEF00F00DEF00F024EFF8
:1000180000F0CE900B0EC76EDC0EC66EC995CCCF25
:1000280006F0CDCF07F0000ECD6E000ECC6ECE8060
:1000380006C082FF5ECFA5FF5FCFA6FF0F015B81E1
:10004800089211008BEF00F0000E0F01546F000EA4
:10005800556F000E566F000E536F000E5A6F000E4C
:10006800576F000E616E000E516F940E5B6F010E9C
:10007800876E010E0C6F950E5B6F12008492899249
:100088000F011C93060E0E01F36F000EA76EA7500A
:10009800F00B0C09A76EAD50F30B0409AD6E010E01
:1000A800BE6EBB68800EBC6EA78E120092EC00F08C
:1000B80028EC00F07FEC00F06EEC00F042EC00F071
:1000C800F28AF28E0E01B985C995C1856AEF00F0F2
:1000D80026EF00F00F011C918980000ED16E100EE2
:1000E8000E01A06F020ECE6E000ECF6E000ECD6E0A
:1000F800000ECC6E1200010ECB6EF20EC86E000E12
:10010800C96E0B0EC76EDC0EC66EC8801200076A79
:10011800066A0890089200015AEF00F0000E0F01DD
:080128000C6F000E876E12003F
:020000040020DA
:10000000FFFFFFFFFFFFFFFFFFFFFFFFFFFFFFFF00
:10001000FFFFFFFFFFFFFFFFFFFFFFFFFFFFFFFFF0
:10002000FFFFFFFFFFFFFFFFFFFFFFFFFFFFFFFFE0
:10003000FFFFFFFFFFFFFFFFFFFFFFFFFFFFFFFFD0
:10004000FFFFFFFFFFFFFFFFFFFFFFFFFFFFFFFFC0
:10005000FFFFFFFFFFFFFFFFFFFFFFFFFFFFFFFFB0
:10006000FFFFFFFFFFFFFFFFFFFFFFFFFFFFFFFFA0
:10007000FFFFFFFFFFFFFFFFFFFFFFFFFFFFFFFF90
:10008000FFFFFFFFFFFFFFFFFFFFFFFFFFFFFFFF80
:10009000FFFFFFFFFFFFFFFFFFFFFFFFFFFFFFFF70
:1000A000FFFFFFFFFFFFFFFFFFFFFFFFFFFFFFFF60
:1000B000FFFFFFFFFFFFFFFFFFFFFFFFFFFFFFFF50
:1000C000FFFFFFFFFFFFFFFFFFFFFFFFFFFFFFFF40
:1000D000FFFFFFFFFFFFFFFFFFFFFFFFFFFFFFFF30
:1000E000FFFFFFFFFFFFFFFFFFFFFFFFFFFFFFFF20
:1000F000FFFFFFFFFFFFFFFFFFFFFFFFFFFFFFFF10
:020000040030CA
:0C000000FCFFFFFF9FFFFFFFFFFFFFFF63
:00000001FF
