:0400000018EF00F005
:1000080006820E01C9A50BEF00F00DEF00F016EF08
:1000180000F0C20EC76EF70EC66EC9955EEC00F012
:100028000F015B81069211007FEF00F0000E0F01B7
:10003800546F000E556F000E566F000E536F000E72
:100048005A6F000E576F000E616E000E516F940EBE
:100058005B6F010E876E010E0C6F950E5B6F1200C1
:10006800849289920F011C93060E0E01F36F000E05
:10007800A76EA750F00B0C09A76EAD50F30B04093F
:10008800AD6E010EBE6EBB68800EBC6EA78E1200F0
:1000980079EC00F01AEC00F06DEC00F034EC00F0B4
:1000A800F28AF28E0E01B985C995C1855AEF00F022
:1000B80018EF00F00F015BB164EF00F066EF00F09D
:1000C8006CEF00F05ECF82FF5FCFA6FF5ECFA5FF8B
:1000D8001200010ECB6EF20EC86E000EC96E0B0E2A
:1000E800C76EDC0EC66EC8801200000E0F010C6FC2
:1000F800000E876E12000690069200014CEF00F089
:020000040020DA
:10000000FFFFFFFFFFFFFFFFFFFFFFFFFFFFFFFF00
:10001000FFFFFFFFFFFFFFFFFFFFFFFFFFFFFFFFF0
:10002000FFFFFFFFFFFFFFFFFFFFFFFFFFFFFFFFE0
:10003000FFFFFFFFFFFFFFFFFFFFFFFFFFFFFFFFD0
:10004000FFFFFFFFFFFFFFFFFFFFFFFFFFFFFFFFC0
:10005000FFFFFFFFFFFFFFFFFFFFFFFFFFFFFFFFB0
:10006000FFFFFFFFFFFFFFFFFFFFFFFFFFFFFFFFA0
:10007000FFFFFFFFFFFFFFFFFFFFFFFFFFFFFFFF90
:10008000FFFFFFFFFFFFFFFFFFFFFFFFFFFFFFFF80
:10009000FFFFFFFFFFFFFFFFFFFFFFFFFFFFFFFF70
:1000A000FFFFFFFFFFFFFFFFFFFFFFFFFFFFFFFF60
:1000B000FFFFFFFFFFFFFFFFFFFFFFFFFFFFFFFF50
:1000C000FFFFFFFFFFFFFFFFFFFFFFFFFFFFFFFF40
:1000D000FFFFFFFFFFFFFFFFFFFFFFFFFFFFFFFF30
:1000E000FFFFFFFFFFFFFFFFFFFFFFFFFFFFFFFF20
:1000F000FFFFFFFFFFFFFFFFFFFFFFFFFFFFFFFF10
:020000040030CA
:0C000000ECFFFFFF9FFFFFFFFFFFFFFF73
:00000001FF
