:0400000049EF00F0D4
:100008000E820E01C9A50BEF00F00DEF00F026EFF0
:1000180000F0CE90C20EC76EF70EC66EC995CCCF53
:100028000CF0CDCF0DF0000ECD6E000ECC6ECE8054
:100038004BEC00F00AC0A5FF0BC0A6FF0CC082FF66
:100048000F015B810E01C5A12CEF00F02EEF00F02F
:1000580047EF00F0C8A033EF00F035EF00F03EEFB7
:1000680000F0C8900F015B91CE90A79E000E826EA3
:1000780045EF00F0C8800F015B81CE80A78E0CC0D1
:1000880082FF0E01C5910E921100DFEF00F00CC047
:1000980001F00DC002F0D89001360236D890013632
:1000A800023601500F015E5D036E02505F59046E07
:1000B80003500A2604500B22040E0B5CD8A067EFED
:1000C80000F069EF00F06CEF00F0030E0B6E0A68A9
:1000D8001200000E0F01546F000E556F000E566F80
:1000E800000E536F000E5A6F000E576F000E616EB0
:1000F800000E516F940E5B6F010E876E010E0C6F30
:10010800950E5B6F1200F1EC00F06DEC00F0B7ECAF
:1001180000F0CEEC00F09FEC00F0E8EC00F0F28A82
:10012800F28E0E01B985C995C185C591BD819BEF38
:1001380000F049EF00F0849289920F011C93060E9B
:100148000E01F36F000EA76EA750F00B0C09A76EF7
:10015800AD50F30B0409AD6E010EBE6EBB68800E88
:10016800BC6EA78E1200010ECB6E320EC86E000E4A
:10017800C96EC20EC76EF70EC66E000ECA6E150E99
:100188000E01A36F0F011C9B898AC98EC98CC98A6D
:10019800C88012000F011C918980000ED16E100ECC
:1001A8000E01A06F020ECE6E000ECF6E000ECD6E49
:1001B800000ECC6E12000D6A0C6A0B6A0A6A0E9069
:1001C8000E92000187EF00F00F01149988880C0E39
:1001D8000E019C6FF290B5811200000E0F010C6F9A
:0601E800000E876E1200FC
:020000040020DA
:10000000FFFFFFFFFFFFFFFFFFFFFFFFFFFFFFFF00
:10001000FFFFFFFFFFFFFFFFFFFFFFFFFFFFFFFFF0
:10002000FFFFFFFFFFFFFFFFFFFFFFFFFFFFFFFFE0
:10003000FFFFFFFFFFFFFFFFFFFFFFFFFFFFFFFFD0
:10004000FFFFFFFFFFFFFFFFFFFFFFFFFFFFFFFFC0
:10005000FFFFFFFFFFFFFFFFFFFFFFFFFFFFFFFFB0
:10006000FFFFFFFFFFFFFFFFFFFFFFFFFFFFFFFFA0
:10007000FFFFFFFFFFFFFFFFFFFFFFFFFFFFFFFF90
:10008000FFFFFFFFFFFFFFFFFFFFFFFFFFFFFFFF80
:10009000FFFFFFFFFFFFFFFFFFFFFFFFFFFFFFFF70
:1000A000FFFFFFFFFFFFFFFFFFFFFFFFFFFFFFFF60
:1000B000FFFFFFFFFFFFFFFFFFFFFFFFFFFFFFFF50
:1000C000FFFFFFFFFFFFFFFFFFFFFFFFFFFFFFFF40
:1000D000FFFFFFFFFFFFFFFFFFFFFFFFFFFFFFFF30
:1000E000FFFFFFFFFFFFFFFFFFFFFFFFFFFFFFFF20
:1000F000FFFFFFFFFFFFFFFFFFFFFFFFFFFFFFFF10
:020000040030CA
:0C000000ECFFFFFF9FFFFFFFFFFFFFFF73
:00000001FF
